:100000000C9434000C9451000C9451000C94510049
:100010000C9451000C9451000C9451000C9451001C
:100020000C9451000C9451000C9451000C94A40DAC
:100030000C9451000C9451000C9451000C945100FC
:100040000C9451000C9451000C9451000C945100EC
:100050000C9451000C9451000C9451000C945100DC
:100060000C9451000C94510011241FBECFEFD8E026
:10007000DEBFCDBF11E0A0E0B1E0EEE1FCE102C0E7
:1000800005900D92AC30B107D9F717E0ACE0B1E0C4
:1000900001C01D92A235B107E1F70E94E80D0C9452
:1000A0000D0E0C940000CF93DF9300D0CDB7DEB7D8
:1000B0000E940E039A83898311E068EC70E0CE0100
:1000C00001960E944A0488B1112339F0880F88B93B
:1000D00088B111E0803889F706C0869588B988B163
:1000E00011E0813051F310E0E8CFE0913A01F09156
:1000F0003B018081811103C08FEF9FEF0CC0E09125
:100100003A01F0913B010580F681E02D0680F781F0
:10011000E02D8281938190931201809311010895C3
:10012000EF92FF920F931F93CF93DF931F92CDB760
:10013000DEB77C010091190110911A0180910C0128
:1001400090910D01029669830E94FB0B69818FEFEC
:10015000E816F80699F4662389F060910C01709115
:100160000D016E5F7F4F8CE191E00F90DF91CF9199
:100170001F910F91FF90EF900C94A20BE00EF11ED7
:10018000E0910C01F0910D01F382E28260910C018B
:1001900070910D01E016F10678F48091380190918C
:1001A00039016E5F7F4F0F90DF91CF911F910F91BB
:1001B000FF90EF900C94C30B80913A0190913B011A
:1001C0006E5F7F4F0E94C30B8091110190911201CD
:1001D000E816F90620F4F0921201E09211010F9056
:1001E000DF91CF911F910F91FF90EF9008955F9253
:1001F0006F927F928F929F92AF92BF92CF92DF9237
:10020000EF92FF920F931F93CF93DF934C01162F22
:10021000572E5A013901CA010E94A70D6C0100979F
:1002200009F4D2C086E290E00E94A70DEC0100978D
:1002300061F0D88ECF8A21E0A21AB108AC0CBD1CA7
:10024000E12FF52D80E090E008C0C6010E94D90D95
:10025000BBC001968830910561F0BF0141919E01BC
:10026000280F391FD90159964C93DB012C9121118C
:10027000F0CF18A2043008F003E00E8B6E01B2E05C
:10028000CB0ED11CC6010E949E0BCE010C960E9483
:100290009E0BD987C88784E090E0801B91099D87D9
:1002A0008C87DB8BCA8B19A21AA21BA21CA21DA2CF
:1002B000A301B401C5010E941E0C99838883E11437
:1002C000F10419F0F701D183C0830FB6F8940F92AF
:1002D00080911B018F5F80931B0180910C01909195
:1002E0000D01892BD1F5D0930D01C0930C018091A4
:1002F0001B01813009F041C08EE491E00E94900B17
:1003000087E591E00E94900B80E691E00E94900BBF
:1003100089E691E00E94900B85E491E00E94900BA9
:100320008CE391E00E94900B8FE291E00E94900B91
:1003300086E291E00E94900B8CE191E00E94900B8C
:1003400085E491E090933B0180933A018CE391E046
:10035000909339018093380110C080911701811169
:100360000CC0E0910C01F0910D0196898E898917DE
:1003700020F0D0930D01C0930C01809113018F5F89
:10038000809313018E8990911801981710F480932F
:100390001801F9E08F9FC0011124B601825B9E4FC6
:1003A0000E94A20B0F900FBE80911701882351F07D
:1003B000E0910C01F0910D0196898E89981710F447
:1003C0000E94EF0C81E001C08FEFDF91CF911F9170
:1003D0000F91FF90EF90DF90CF90BF90AF909F90E4
:1003E0008F907F906F905F9008950F931F93CF939E
:1003F000DF93EC010FB6F8940F92009721F4C091AF
:100400000C01D0910D018E010E5F1F4FC8010E949B
:10041000FB0B8C899D89892B21F0CE010C960E94C3
:10042000FB0B809113018F5F8093130180910C016E
:1004300090910D01C817D90759F4B80186E291E0EF
:100440000E94A20B809125018F5F809325010EC031
:1004500080911B01815080931B018F89988D0E9490
:10046000D90DCE010E94D90D0E9475000F900FBECC
:1004700080911701882349F080910C0190910D0122
:10048000C817D90711F40E94EF0CDF91CF911F918B
:100490000F9108950F931F93CF93DF93EC01009773
:1004A00009F439C080910C0190910D01C817D9074A
:1004B00091F10FB6F8940F928A859B858C519140EB
:1004C00041F58C899D8921E08F32920711F1892BAA
:1004D00001F58E010E5F1F4FC8010E94FB0B8E8934
:1004E00090911801981710F48093180129E0829FC9
:1004F000C0011124B801825B9E4F0E94A20BE091C3
:100500000C01F0910D019E898689981710F00E94C8
:10051000EF0C0F900FBEDF91CF911F910F910895B7
:10052000FF920F931F93CF93DF93EC018A859B85F6
:100530008C519140A9F58C899D8931E08F329307C8
:1005400079F1892B69F580910E01811122C0E0912A
:100550000C01F0910D01FF24F3949E898689981770
:1005600008F4F12C8E010E5F1F4FC8010E94FB0B97
:100570002E8980911801821710F42093180139E018
:10058000239FC0011124B801825B9E4F0E94A20BE1
:1005900008C0BE01645F7F4F8FE291E00E94A20B12
:1005A000F12C8F2DDF91CF911F910F91FF90089526
:1005B000EF92FF920F938FE0E82E81E0F82E00E09B
:1005C00020E030E045E550E067E071E08CE994E040
:1005D0000E94F700813099F4F8948FEF9FEF909389
:1005E00012018093110181E08093170110921A018A
:1005F000109219010F91FF90EF900C94AE0C0F9197
:10060000FF90EF900895F894109217010C94EE0C5F
:1006100080910E018F5F80930E0108950FB6F894BC
:100620000F928091190190911A010F900FBE0895B9
:100630008091190190911A01089580911B010895EC
:10064000009721F480910C0190910D014996089535
:10065000CF92DF92EF92FF920F931F93CF93DF938E
:1006600080910E01811191C0C0911901D0911A01A0
:100670002196D0931A01C09319012097B9F4809163
:100680003A0190913B01209138013091390130932A
:100690003B0120933A019093390180933801809176
:1006A00014018F5F809314010E94750080911101E5
:1006B00090911201D12CC817D90708F455C099E0C0
:1006C000C92EE0913A01F0913B018081811107C070
:1006D0008FEF9FEF909312018093110145C0E0913D
:1006E0003A01F0913B010580F681E02D06811781EA
:1006F000D80112962D913C911397C217D30728F475
:1007000030931201209311012FC07801B2E0EB0E5B
:10071000F11CC7010E94FB0BF80124893589232BAA
:1007200021F0C8010C960E94FB0BD80156962C9123
:1007300080911801821710F420931801C29EC00105
:100740001124B701825B9E4F0E94A20BE0910C0125
:10075000F0910D01D80156969C918689981708F45E
:10076000B0CFDD24D394ADCFE0910C01F0910D0119
:10077000E689B9E0EB9FF0011124E25BFE4F808136
:10078000823048F0DD24D39406C0809116018F5F3B
:1007900080931601D12C80911501882311F0DD245E
:1007A000D3948D2DDF91CF911F910F91FF90EF90FA
:1007B000DF90CF900895EF92FF920F931F93CF9306
:1007C000DF930FB6F8940F9280910E0181508093C1
:1007D0000E0180910E01882311F080E052C08091BB
:1007E0001B018823D1F3C0E0D0E029E0F22EEE24F3
:1007F000E39480912F01882351F1E0913401F0912D
:100800003501C681D781CE010C960E94FB0B8E016B
:100810000E5F1F4FC8010E94FB0B8E89909118013B
:10082000981710F480931801F89EC0011124B801A4
:10083000825B9E4F0E94A20BE0910C01F0910D0192
:100840009E8986899817A8F2E0921501D2CFCD2B08
:1008500011F00E947500C0911601CC2351F0D1E037
:100860000E9428038111D0931501C150C9F710923D
:10087000160180911501882309F4AFCF0E94EF0C77
:1008800081E00F900FBEDF91CF911F910F91FF90EC
:10089000EF9008950F931F93CF93DF93EC018B019B
:1008A0000E9408034091190150911A01E881F981D1
:1008B0009F01200F311F4E175F0728F42E173F07A7
:1008C00048F481E004C081E02E173F0720F0421772
:1008D000530708F080E039832883882331F060E0F3
:1008E000C901841B950B0E9490000E94DB038111BB
:1008F00002C00E94EF0CDF91CF911F910F910895DC
:10090000CF93DF9300D0CDB7DEB7009719F40E94E4
:10091000EF0C0DC089839A830E94080360E08981EF
:100920009A810E9490000E94DB03882381F30F903C
:100930000F90DF91CF91089580912501882349F18F
:100940000E940803C09126010E94DB03CC23A1F37F
:100950000FB6F8940F92E0912B01F0912C01C68113
:10096000D781CE0102960E94FB0B80911B01815022
:1009700080931B01809125018150809325010F9068
:100980000FBE8F89988D0E94D90DCE010E94D90D7E
:10099000D3CF80914E01823078F20E94EF0CCCCF01
:1009A00080910E01882321F081E080931501089544
:1009B000109215012091180199E0929FF0011124E5
:1009C000E25BFE4F8081811102C02150F6CFA181F0
:1009D000B28112960D90BC91A02DB283A183CF015C
:1009E0000396A817B90731F412968D919C9113972D
:1009F000928381830180F281E02D8681978190939B
:100A00000D0180930C012093180108950F931F93FB
:100A1000CF93DF93EC010FB6F8940F92009721F477
:100A2000C0910C01D0910D018E010E5F1F4FC801C6
:100A30000E94FB0B8C899D89892B21F0CE010C969D
:100A40000E94FB0BB8018CE191E00E94A20B0F9079
:100A50000FBE80911701882339F00FB6F8940F92DA
:100A60000E9475000F900FBE80910C0190910D01B6
:100A7000C817D907C1F480911701882319F00E9483
:100A8000EF0C11C080911B0190911C01981305C0BF
:100A900010920D0110920C0106C0DF91CF911F91B1
:100AA0000F910C94D004DF91CF911F910F91089575
:100AB000CF93DF93EB0160910C0170910D01645FA6
:100AC0007F4F0E94C30B61E0CE01DF91CF910C9468
:100AD0009000CF93DF93EA01E0910C01F0910D01BA
:100AE00070687587648760910C0170910D01645F77
:100AF0007F4F0E94A20B61E0CE01DF91CF910C9459
:100B000090000F931F93CF93DF93DC011596ED9127
:100B1000FC911697C681D7818E01045F1F4FC801D3
:100B20000E94FB0B80910E01811115C08E010E5F9A
:100B30001F4FC8010E94FB0B8E89909118019817D6
:100B400010F480931801B9E08B9FC0011124B80103
:100B5000825B9E4F03C0B8018FE291E00E94A20B1E
:100B6000E0910C01F0910D019E898689891720F48E
:100B700081E08093150101C080E0DF91CF911F914A
:100B80000F9108950F931F93CF93DF937068FC012B
:100B900071836083C681D7810E94FB0B8E010E5F3B
:100BA0001F4FC8010E94FB0B8E8990911801981766
:100BB00010F480931801F9E08F9FC0011124B8014F
:100BC000825B9E4F0E94A20BE0910C01F0910D01FF
:100BD0009E898689891720F481E08093150101C0E0
:100BE00080E0DF91CF911F910F9108952091140122
:100BF000FC0120832091190130911A013283218355
:100C00000895CF93DF930FB6F8940F92E0911901F6
:100C1000F0911A01DB014D915C914F3FBFEF5B07F3
:100C2000D1F0B0911401EC01A88129813A81BA1761
:100C300019F0E217F30788F4DF01A21BB30BA41726
:100C4000B50758F42E1B3F0B240F351FFB013183D2
:100C500020830E94F60580E001C081E00F900FBE66
:100C6000DF91CF91089581E0809315010895E0917F
:100C70000C01F0910D0184859585E0910C01F091B6
:100C80000D01A0910C01B0910D0156964C9124E0FC
:100C900030E0241B31093587248708950F931F9373
:100CA000182FCB010FB6F8940F92E0910C01F09140
:100CB0000D0141A152A163A174A1452B462B472BE5
:100CC00069F4E0910C01F0910D0121E025A300975A
:100CD00029F061E00E9490000E94EF0C0F900FBE7F
:100CE0000FB6F8940F92E0910C01F0910D0161A103
:100CF00072A183A194A16115710581059105A9F0E7
:100D0000E0910C01F0910D01112329F011A212A222
:100D100013A214A20AC08B019C01015011092109E0
:100D2000310901A312A323A334A3E0910C01F09194
:100D30000D0115A20F900FBE1F910F9108958F9274
:100D40009F92AF92BF92CF92DF92EF92FF920F935A
:100D50001F93CF93DF9300D000D0CDB7DEB7D7017C
:100D60000FB6F8940F92E0910C01F0910D01E5A1FE
:100D7000E23061F1E0910C01F0910D01C1A0D2A02F
:100D8000E3A0F4A04B015C0180949094A094B094F3
:100D90008C209D20AE20BF2081A292A2A3A2B4A24B
:100DA000E0910C01F0910D0181E085A3109771F0A5
:100DB00061E0CD0129833A834B835C830E949000DC
:100DC0000E94EF0C5C814B813A8129810F900FBE0C
:100DD0000FB6F8940F920115110569F0E0910C011E
:100DE000F0910D0181A192A1A3A1B4A1F80180838A
:100DF0009183A283B383E0910C01F0910D0185A151
:100E00008130C1F0E0910C01F0910D01C1A0D2A0A0
:100E1000E3A0F4A0DA01C90180959095A095B09562
:100E20008C219D21AE21BF2181A392A3A3A3B4A3B2
:100E300081E001C080E0E0910C01F0910D0115A26C
:100E40000F900FBE0F900F900F900F90DF91CF91EA
:100E50001F910F91FF90EF90DF90CF90BF90AF90D8
:100E60009F908F900895CF92DF92EF92FF920F9311
:100E70001F93CF93DF93EC010FB6F8940F920115F7
:100E8000110549F0C9A0DAA0EBA0FCA0F801C082CE
:100E9000D182E282F3828DA192E09DA32230A9F05B
:100EA00078F4213009F509A11AA12BA13CA1042B4A
:100EB000152B262B372B09A31AA32BA33CA314C055
:100EC000233071F0243051F00FC049A15AA16BA119
:100ED0007CA14F5F5F4F6F4F7F4F02C0823041F167
:100EE00049A35AA36BA37CA3813001F58E010E5F49
:100EF0001F4FC8010E94FB0B8E8990911801981713
:100F000010F480931801F9E08F9FC0011124B801FB
:100F1000825B9E4F0E94A20BE0910C01F0910D01AB
:100F20009E898689891710F40E94EF0C81E001C028
:100F300080E00F900FBEDF91CF911F910F91FF9036
:100F4000EF90DF90CF900895EF92FF920F931F9351
:100F5000CF93DF93EC010115110549F089A19AA106
:100F6000ABA1BCA1F80180839183A283B3833DA18F
:100F700082E08DA3223089F058F4213001F589A157
:100F80009AA1ABA1BCA1842B952BA62BB72B0CC08F
:100F9000233089F0243069F012C089A19AA1ABA155
:100FA000BCA10196A11DB11D89A39AA3ABA3BCA3AB
:100FB00006C03230D1F149A35AA36BA37CA33130D0
:100FC00011F081E033C080910E01811115C08E01B6
:100FD0000E5F1F4FC8010E94FB0B8E899091180174
:100FE000981710F480931801F9E08F9FC001112425
:100FF000B801825B9E4F05C0BE01645F7F4F8FE2E8
:1010000091E00E94A20BE0910C01F0910D019E89EC
:1010100086898917B0F681E0E114F10419F0F7012F
:10102000808304C08093150101C080E0DF91CF91DF
:101030001F910F91FF90EF900895EF92FF920F9301
:101040001F93CF93DF93EC018B018DA192E09DA3C1
:1010500049A15AA16BA17CA14F5F5F4F6F4F7F4F9A
:1010600049A35AA36BA37CA3813091F580910E0113
:10107000811116C07E0122E0E20EF11CC7010E9420
:10108000FB0B8E8990911801981710F4809318012A
:10109000E9E08E9FC0011124B701825B9E4F05C01D
:1010A000BE01645F7F4F8FE291E00E94A20BE0914E
:1010B0000C01F0910D019E898689891748F481E021
:1010C0000115110519F0F801808302C08093150104
:1010D000DF91CF911F910F91FF90EF9008950097AE
:1010E00021F480910C0190910D010FB6F8940F92AC
:1010F000FC0125A1223019F415A281E001C080E095
:101100000F900FBE08950F931F93CF93DF93EC01C1
:10111000042F1A8D4C8D4423B1F150E0011115C0FC
:101120008C819D810E94040E2C8D8C819D81820F6B
:10113000911D9D838C832A813B818217930718F12F
:10114000888199819D838C831EC08E819F810E949E
:10115000040E2C8D30E03195219531098E819F81CF
:10116000820F931F9F838E836881798186179707EB
:1011700030F48A819B81820F931F9F838E8302307C
:1011800011F4111111501F5F1A8F80E0DF91CF9180
:101190001F910F910895FC01CB01448D4423A1F0D0
:1011A00050E026813781240F351F378326836281E3
:1011B00073812617370720F02081318137832683FA
:1011C000668177810C94040E0895FF920F931F930C
:1011D000CF93DF93EC010FB6F8940F92FE8C8C0145
:1011E0000F5E1F4F1F145CF48989882341F0C801EA
:1011F0000E94810581110E943306FA94F3CF8FEF8C
:101200008E8F0F900FBE0FB6F8940F92FD8C8E014B
:10121000085F1F4F1F145CF48885882341F0C801C4
:101220000E94810581110E943306FA94F3CF8FEF5B
:101230008D8F0F900FBEDF91CF911F910F91FF9077
:101240000895CF93DF93EC010FB6F8940F922881A5
:1012500039818B8D7C8D879FC0011124A901480F96
:10126000591F5B834A831A8E3D832C83871B910908
:10127000820F931F9F838E838FEF8D8F8E8F6111CF
:101280000CC08885882389F0CE0108960E948105CC
:10129000882359F00E94EF0C08C0CE0108960E94E6
:1012A000900BCE0141960E94900B0F900FBE81E0F3
:1012B000DF91CF910895EF92FF921F93CF93DF9329
:1012C0001F92CDB7DEB7182F662321F0869FC0018D
:1012D000112402C080E090E04F9669830E94A70D20
:1012E0007C016981009799F0611104C0FC01918330
:1012F000808306C09C01215E3F4FFC013183208327
:10130000F701138F648F61E0C7010E942109C701B3
:101310000F90DF91CF911F91FF90EF900895BF92B2
:10132000CF92DF92EF92FF920F931F93CF93DF93B1
:1013300000D000D01F92CDB7DEB78C016B015D836A
:101340004C83B22E20E07C0188E0E80EF11C0FB641
:10135000F8940F92F801928D838D981718F0F2E0AF
:10136000BF1214C04B2DB601C8010E948308F801BA
:101370009189992321F0C80141960E94810581112C
:101380000E94EF0C0F900FBE81E051C08C819D81B7
:10139000892B19F40F900FBE49C0211104C0CE0152
:1013A00001960E94F6050F900FBE0E9408030FB62B
:1013B000F8940F92F801858D8F3F09F4158EF8018E
:1013C000868D8F3F09F4168E0F900FBEBE016C5FA5
:1013D0007F4FCE0101960E940106811122C00FB6F7
:1013E000F8940F92F801928D0F900FBEF801838D43
:1013F000981311C06C817D81C7010E945805C801F6
:101400000E94E5080E94DB03882311F021E09FCFB2
:101410000E94EF0CFBCFC8010E94E5080E94DB038D
:10142000F5CFC8010E94E5080E94DB0380E00F9021
:101430000F900F900F900F90DF91CF911F910F9110
:10144000FF90EF90DF90CF90BF900895FF920F93A1
:101450001F93CF93DF93EC018A019A8D8B8D9817A0
:1014600010F02230E1F4FE8C422FCE010E9483085E
:101470008FEFF81210C08989882379F0CE01419648
:101480000E948105882349F00115110531F081E0A2
:10149000F801808305C0F394FE8E81E001C080E0F6
:1014A000DF91CF911F910F91FF900895CF93DF931C
:1014B000FC01EB01928D838D9817B8F4868D9F5FA8
:1014C000928F8F3F71F48189882369F0CF01419613
:1014D0000E948105882339F0209729F081E08883D4
:1014E00005C08F5F868F81E001C080E0DF91CF91E2
:1014F0000895AF92BF92CF92DF92EF92FF920F9337
:101500001F93CF93DF9300D000D01F92CDB7DEB7EB
:101510008C016B015D834C83A22E30E07C0181E164
:10152000E80EF11C0FB6F8940F92F801B28CBB20B4
:1015300021F1E680F780B601C8010E94CB08A11016
:101540000FC0BA94F801B28E8085882391F0C8014B
:1015500008960E948105882361F00E94EF0C09C063
:10156000F801F782E6828189882319F0C801419643
:10157000F0CF0F900FBE81E058C08C819D81892BE8
:1015800021F40F900FBE80E050C0311104C0CE0195
:1015900001960E94F6050F900FBE0E9408030FB639
:1015A000F8940F92F801858D8F3F09F4158EF8019C
:1015B000868D8F3F09F4168E0F900FBEBE016C5FB3
:1015C0007F4FCE0101960E940106811120C00FB607
:1015D000F8940F92F801828D0F900FBE811111C007
:1015E0006C817D81C7010E945805C8010E94E508F1
:1015F0000E94DB03882311F031E094CF0E94EF0CAE
:10160000FBCFC8010E94E5080E94DB03F5CFC801AB
:101610000E94E5080E94DB030FB6F8940F92F801D0
:10162000828D0F900FBE8111E7CF0F900F900F901A
:101630000F900F90DF91CF911F910F91FF90EF903E
:10164000DF90CF90BF90AF900895EF92FF920F93ED
:101650001F93CF93DF93EC018A01EA8CEE20E1F037
:10166000FD8C0E94CB08EA94EA8E8FEFF81210C02E
:101670008885882379F0CE0108960E948105882309
:1016800049F00115110531F081E0F801808305C0B2
:10169000F394FD8E81E001C080E0DF91CF911F9136
:1016A0000F91FF90EF9008950F931F93CF93DF93C7
:1016B000EC018A8D882349F00E811F81CE010E94A2
:1016C000CB081F830E8381E001C080E0DF91CF91C2
:1016D0001F910F9108950FB6F8940F92FC01828D1F
:1016E0000F900FBE08950FB6F8940F92FC01228D53
:1016F0000F900FBEFC01838D821B0895FC01828D2B
:1017000008950C94D90DFC01928D81E0911180E037
:101710000895FC01228D81E0938D291380E00895C6
:10172000FC010396928381832FEF3FEF3483238361
:10173000968385839087878310820895FC011186A4
:1017400010860895CF93DF939C01FB01DC01119675
:10175000CD91DC911297D383C2838C819D81958337
:1017600084838C819D81DC0113967C936E93129708
:101770007D836C8331872087F90180818F5F80832F
:10178000DF91CF9108950F931F93CF93DF938C0137
:10179000FB01208131812F3F8FEF380721F4E801D1
:1017A000AF81B8850EC0D801139612968D919C9189
:1017B0001397EC01488159812417350710F0DC019B
:1017C000F4CF12968D919C91139793838283EC01B1
:1017D000FD83EC83B583A4831396FC93EE93129759
:1017E00011870087F80180818F5F8083DF91CF911F
:1017F0001F910F910895CF93DF93FC01A085B185D0
:101800008281938124813581EC013D832C83C481C5
:10181000D5819B838A8311968D919C9112978E1707
:101820009F0721F41296DC93CE93119711861086B0
:101830008C9181508C93DF91CF91089531E1FC011F
:101840003083319722E22083FC013297A3E3A08307
:10185000FC0133976083FC0134977083FC0135975A
:101860001082FC01369760E86083FC013797108294
:10187000FC01389762E06083FC01399763E0608384
:10188000FC013A9764E06083FC013B9765E060836C
:10189000FC013C9766E06083FC013D9767E0608354
:1018A000FC013E9768E06083FC013F9769E060833C
:1018B000FC01709760E16083FC0171973083FC014B
:1018C000729732E13083FC01739733E13083FC017E
:1018D000749734E13083FC01759735E13083FC0166
:1018E000769736E13083FC01779737E13083FC014E
:1018F000789738E13083FC01799739E13083FC0136
:101900007A9730E23083FC017B9731E23083FC012F
:101910007C972083FC017D9723E22083FC017E9746
:101920004083FC017F975083FC01B09726E220831F
:10193000FC01B19727E22083FC01B29728E22083C3
:10194000FC01B39729E22083FC01B49720E32083B4
:10195000FC01B59721E320838697089587E391E002
:101960009093890080938800E0E8F0E080818C7F8C
:1019700080838BE080938100EFE6F0E080818260DD
:101980008083A0910C01B0910D01CD91CDBFDD916F
:10199000DEBFFF91EF91DF91CF91BF91AF919F910A
:1019A0008F917F916F915F914F913F912F911F91F7
:1019B0000F91FF90EF90DF90CF90BF90AF909F90EE
:1019C0008F907F906F905F904F903F902F901F90DF
:1019D0000F900FBE0F90089581E0089508950F9223
:1019E0000FB6F8940F921F9211242F923F924F92AC
:1019F0005F926F927F928F929F92AF92BF92CF929F
:101A0000DF92EF92FF920F931F932F933F934F9389
:101A10005F936F937F938F939F93AF93BF93CF9376
:101A2000DF93EF93FF93A0910C01B0910D010DB6E0
:101A30000D920EB60D920E94D004A0910C01B091AF
:101A40000D01CD91CDBFDD91DEBFFF91EF91DF9113
:101A5000CF91BF91AF919F918F917F916F915F9146
:101A60004F913F912F911F910F91FF90EF90DF9039
:101A7000CF90BF90AF909F908F907F906F905F902E
:101A80004F903F902F901F900F900FBE0F90089592
:101A90000F920FB6F8940F921F9211242F923F923B
:101AA0004F925F926F927F928F929F92AF92BF926E
:101AB000CF92DF92EF92FF920F931F932F933F935A
:101AC0004F935F936F937F938F939F93AF93BF9346
:101AD000CF93DF93EF93FF93A0910C01B0910D0191
:101AE0000DB60D920EB60D920E94280381110E9430
:101AF000D004A0910C01B0910D01CD91CDBFDD912D
:101B0000DEBFFF91EF91DF91CF91BF91AF919F9198
:101B10008F917F916F915F914F913F912F911F9185
:101B20000F91FF90EF90DF90CF90BF90AF909F907C
:101B30008F907F906F905F904F903F902F901F906D
:101B40000F900FBE0F9008950E94480D1895CF93E7
:101B5000DF93EC010E940803809172019091730160
:101B6000892B31F487E791E09093730180937201A0
:101B70002091740130917501CE01820F931F8B3D2E
:101B800045E0940770F42817390758F4C0917201A2
:101B9000D0917301C20FD31F90937501809374018C
:101BA00002C0C0E0D0E00E94DB03CE01DF91CF9104
:101BB000089508951092750110927401089520916E
:101BC0007401309175018BED95E0821B930B0895A4
:101BD000EF92FF920F9381E088B98FEF87B9E12CE4
:101BE000F12C01E020E030E045E550E060E071E0FC
:101BF00083E590E00E94F7000E94D80280E090E028
:101C00000F91FF90EF900895FB01DC0102C001905D
:0E1C10000D9241505040D8F70895F894FFCF40
:0C1C1E00426C696E6B790049444C450033
:00000001FF
